:100000000C942A000C9449000C9447000C9447006F
:100010000C9447000C9447000C9447000C94470044
:100020000C9447000C9447000C9447000C94470034
:100030000C9447000C9414020C9443020C94470057
:100040000C9447000C9447000C9447000C94470014
:100050000C94470011241FBECFE5D8E0DEBFCDBF12
:1000600010E0A0E6B0E0E4EFFBE002C005900D92E6
:10007000AA37B107D9F712E0AAE7B0E001C01D9294
:10008000AC31B107E1F70E94DD000C94F8050C9447
:1000900000001F920F920FB60F9211248F939F931F
:1000A000AF93BF93F894C9991EC080917F0090913F
:1000B0008000A0918100B09182000097A105B10558
:1000C00091F48FEF9FE8A1E0B0E080937F009093E0
:1000D0008000A0938100B09382008FEF80937B001B
:1000E00081E080937A00CC991EC08091830090912A
:1000F0008400A0918500B09186000097A105B1050C
:1001000091F48FEF9FE8A1E0B0E08093830090939B
:100110008400A0938500B09386008FEF80937C00CD
:1001200082E080937A009F991EC080918700909111
:100130008800A0918900B0918A000097A105B105BF
:1001400091F48FEF9FE8A1E0B0E080938700909357
:100150008800A0938900B0938A008FEF80937D0080
:1001600083E080937A009E991EC080918B009091CD
:100170008C00A0918D00B0918E000097A105B10573
:1001800091F48FEF9FE8A1E0B0E080938B00909313
:100190008C00A0938D00B0938E008FEF80937E0033
:1001A00084E080937A007894BF91AF919F918F9172
:1001B0000F900FBE0F901F901895AF92BF92CF92E5
:1001C000DF92EF92FF920F931F93DF93CF93CDB700
:1001D000DEB728970FB6F894DEBF0FBECDBF88E814
:1001E00093E128EB30E0F9013197F1F70197D9F766
:1001F0008B9A9398D09AD39AD69AD79AA198A49882
:10020000A798A698D99ADC9AAF9AAE9A929A8A98A9
:1002100085B7826085BF8BB780648BBF8CE690E02A
:1002200090931702809316029093190280931802FC
:1002300087E090E00E940A02789408EB10E093E3D4
:10024000A92E97E0B92E7E010894E11CF11C84E6EA
:10025000C82E80E0D82E939880917F0090918000E6
:10026000A0918100B09182000097A105B10569F0CD
:10027000D89A0197A109B10980937F0090938000DB
:10028000A0938100B093820001C0D8988091830030
:1002900090918400A0918500B09186000097A105FF
:1002A000B10569F0DB9A0197A109B1098093830038
:1002B00090938400A0938500B093860001C0DB98E2
:1002C0008091870090918800A0918900B0918A0068
:1002D0000097A105B10569F0DE9A0197A109B1095E
:1002E0008093870090938800A0938900B0938A0040
:1002F00001C0DE9880918B0090918C00A0918D00C0
:10030000B0918E000097A105B10569F0DF9A0197C1
:10031000A109B10980938B0090938C00A0938D006C
:10032000B0938E0001C0DF98809116029091170261
:100330000E94A9022FEF8F3F920709F48CCF8D30D6
:10034000910521F08A30910509F056C0E091100125
:10035000F0E0EF5EFE4F108281E191E060E670E038
:100360000E94A002009709F03BC088EE93E0F801DC
:100370003197F1F70197D9F7939AC5010197F1F7F2
:1003800088EE93E0F8013197F1F70197D9F700D0A3
:1003900000D000D0EDB7FEB73196ADB7BEB712961C
:1003A000FC92EE921197D382C28280917A0084836C
:1003B00015820E9420038DB79EB706960FB6F8945B
:1003C0009EBF0FBE8DBFC7010E94EB0288EE93E077
:1003D000F8013197F1F70197D9F7939810927A00C5
:1003E00080E0E82FF0E0EF5EFE4F10828F5F8038F4
:1003F000C1F7109210012FCF209110012F3708F074
:100400002ACFE22FF0E0EF5EFE4F80832F5F209334
:10041000100121CF90BD89B91BB888E08AB9549AE0
:10042000579A86E880BD08951F920F920FB60F92DB
:1004300011242F933F934F935F938F939F93EF9349
:10044000FF933CB12091D301E22FF0E08091D201E3
:10045000AF01481B51094034510541F0EF73F07072
:10046000EE56FE4F30832F5F2093D301FF91EF9123
:100470009F918F915F914F913F912F910F900FBE60
:100480000F901F9018951F920F920FB60F92112484
:100490008F939F93EF93FF93909114028091150295
:1004A000981711F455980BC0E92FF0E0EF73F07036
:1004B000EC52FE4F80819F5F909314028CB9FF91A4
:1004C000EF919F918F910F900FBE0F901F901895F5
:1004D000382FF89420911502E22FF0E08091140259
:1004E000AF01481B51094034510519F42FEF3FEF7C
:1004F0000BC0EF73F070EC52FE4F30832F5F2093F0
:100500001502559A20E030E07894C9010895F894D6
:100510004091D2018091D301481719F42EEF3FEF9B
:100520000CC0E42FF0E0EF73F070EE56FE4F8081C8
:10053000282F30E04F5F4093D2017894C90108958D
:10054000FB01DC018D91019080190110D9F3990B09
:100550000895CF93DF93EC014B8140FF1AC046FF13
:100560000AC04F7B4B838E819F8101969F838E8330
:100570008A81282F2BC042FF13C0E881F981808136
:10058000282F332727FD30952115310529F44062A6
:100590004B832FEF3FEF1BC03196F983E88311C0E7
:1005A000EA85FB85CE0109959C0197FF0AC09B81D6
:1005B0002F5F3F4F11F080E201C080E1892B8B83D8
:1005C000E8CF8E819F8101969F838E8330E0C901A1
:1005D000DF91CF9108950F931F93CF93DF938C01F9
:1005E000E0911802F0911902838181FF21C0C0E0DF
:1005F000D0E00DC0E0911802F091190220853185FC
:10060000BF01F9010995892B11F0CFEFDFEFF80158
:1006100081918F01882371F7E0911802F0911902FE
:10062000208531858AE0BF01F9010995892B11F0F8
:10063000CFEFDFEFCE01DF91CF911F910F910895A2
:10064000AEE0B0E0E6E2F3E00C94CF050D891E8940
:1006500086E08C831A8309838FEF9FE79E838D83C7
:100660009E01275E3F4FCE0101966F89788DA901CB
:100670000E9444032F813885020F131FF801108256
:100680002E96E4E00C94EB05ABE0B0E0EAE4F3E096
:100690000C94C1053C012B015A01FC011782168202
:1006A000838181FD03C06FEF7FEFC6C19AE0892E81
:1006B0001E010894211C311CF3012381F20123FD4A
:1006C000859123FF81912F01882309F4B2C18532DE
:1006D00039F423FD859123FF81912F01853229F47F
:1006E00090E0B3010E943705E7CF982FFF24EE2456
:1006F0009924FFE1FF15D0F09B3269F09C3228F479
:10070000903259F0933291F40EC09D3249F09033FB
:1007100069F441E024C052E0F52A84E0F82A28C0B8
:1007200098E0F92A25C0E0E1FE2A22C0F7FC29C0A2
:10073000892F80538A3070F4F6FE05C0989C902C67
:100740001124980E15C0E89CE02C1124E80EF0E26C
:10075000FF2A0EC09E3229F4F6FC6BC140E4F42A55
:1007600007C09C3619F450E8F52A02C0983649F4BF
:10077000F20123FD959123FF91912F01992309F017
:10078000B8CF892F8554833018F08052833038F4E5
:1007900044E050E0A40EB51E5FE359830FC09336CA
:1007A00031F0933779F0933509F056C020C0F50148
:1007B0008081898342E050E0A40EB51E610101E012
:1007C00010E012C0F501C080D180F6FC03C06FEFCD
:1007D0007FEF02C0692D70E042E050E0A40EB51E2C
:1007E000C6010E942C058C015FE7F52214C0F501BB
:1007F000C080D180F6FC03C06FEF7FEF02C0692D8F
:1008000070E042E050E0A40EB51EC6010E94210532
:100810008C0150E8F52AF3FE07C01AC080E290E090
:10082000B3010E943705EA948E2D90E0081719074E
:10083000A8F30EC0F601F7FC8591F7FE81916F01D8
:1008400090E0B3010E943705E110EA940150104096
:100850000115110579F7EAC0943611F0993669F55A
:10086000F7FE08C0F501208131814281538184E087
:1008700090E00AC0F501808191819C01442737FDF9
:100880004095542F82E090E0A80EB91E9FE6F92211
:1008900057FF09C050954095309521953F4F4F4FD8
:1008A0005F4FE0E8FE2ACA01B901A1012AE030E069
:1008B0000E946305D82ED21840C0953729F41F2D09
:1008C0001F7E2AE030E01DC01F2D197F9F3661F08A
:1008D000903720F4983509F0ACC00FC0903739F04C
:1008E000983709F0A6C004C028E030E00AC01061C3
:1008F00014FD146020E130E004C014FD166020E116
:1009000032E017FF08C0F501608171818281938117
:1009100044E050E008C0F50180819181BC0180E095
:1009200090E042E050E0A40EB51EA1010E946305D4
:10093000D82ED2188FE7F82EF122F6FE0BC05EEF0C
:10094000F522D91438F4F4FE07C0F2FC05C08FEE8E
:10095000F82202C01D2D01C0192DF4FE0DC0FE01AC
:10096000ED0DF11D8081803319F499EEF92208C054
:100970001F5FF2FE05C003C08F2D867809F01F5F50
:100980000F2DF3FC14C0F0FE0FC01E1510F09D2CAF
:100990000BC09D2C9E0C911A1E2D06C080E290E08B
:1009A000B3010E9437051F5F1E15C0F304C01E155A
:1009B00010F4E11A01C0EE2404FF0FC080E390E0C0
:1009C000B3010E94370502FF1DC001FD03C088E787
:1009D00090E00EC088E590E00BC0802F867891F003
:1009E00001FF02C08BE201C080E2F7FC8DE290E0E3
:1009F000B3010E94370506C080E390E0B3010E9476
:100A000037059A94D914C0F3DA94F101ED0DF11D74
:100A1000808190E0B3010E943705DD20A9F706C070
:100A200080E290E0B3010E943705EA94EE20C1F71E
:100A300043CEF30166817781CB012B96E2E10C94E2
:100A4000DD05FC010590615070400110D8F78095DC
:100A500090958E0F9F1F0895FC016150704001908A
:100A60000110D8F7809590958E0F9F1F08950F93D2
:100A70001F93CF93DF938C01EB018B8181FF1BC010
:100A800082FF0DC02E813F818C819D8128173907FF
:100A900064F4E881F9810193F983E88306C0E8856D
:100AA000F985802F0995892B31F48E819F810196DC
:100AB0009F838E8302C00FEF1FEFC801DF91CF919C
:100AC0001F910F910895FA01AA27283051F1203182
:100AD00081F1E8946F936E7F6E5F7F4F8F4F9F4FD2
:100AE000AF4FB1E03ED0B4E03CD0670F781F891F14
:100AF0009A1FA11D680F791F8A1F911DA11D6A0FE2
:100B0000711D811D911DA11D20D009F468943F9194
:100B10002AE0269F11243019305D3193DEF6CF0193
:100B20000895462F4770405D4193B3E00FD0C9F759
:100B3000F6CF462F4F70405D4A3318F0495D31FDC6
:100B40004052419302D0A9F7EACFB4E0A695979519
:100B5000879577956795BA95C9F7009761057105EF
:100B600008959B01AC010A2E069457954795379539
:100B70002795BA95C9F7620F731F841F951FA01D93
:100B800008952F923F924F925F926F927F928F9231
:100B90009F92AF92BF92CF92DF92EF92FF920F930C
:100BA0001F93CF93DF93CDB7DEB7CA1BDB0B0FB616
:100BB000F894DEBF0FBECDBF09942A8839884888D3
:100BC0005F846E847D848C849B84AA84B984C88469
:100BD000DF80EE80FD800C811B81AA81B981CE0F60
:100BE000D11D0FB6F894DEBF0FBECDBFED01089545
:040BF000F894FFCFA7
:100BF4006765740025303164250D0A000000000388
:0A0C040000000000680287020000F3
:00000001FF
